{
  "_format": "hh-sol-artifact-1",
  "contractName": "NFTMarketplace",
  "sourceName": "contracts/NFTMarketplace.sol",
  "abi": [
    {
      "inputs": [],
      "stateMutability": "nonpayable",
      "type": "constructor"
    },
    {
      "anonymous": false,
      "inputs": [
        {
          "indexed": true,
          "internalType": "address",
          "name": "owner",
          "type": "address"
        },
        {
          "indexed": true,
          "internalType": "address",
          "name": "approved",
          "type": "address"
        },
        {
          "indexed": true,
          "internalType": "uint256",
          "name": "tokenId",
          "type": "uint256"
        }
      ],
      "name": "Approval",
      "type": "event"
    },
    {
      "anonymous": false,
      "inputs": [
        {
          "indexed": true,
          "internalType": "address",
          "name": "owner",
          "type": "address"
        },
        {
          "indexed": true,
          "internalType": "address",
          "name": "operator",
          "type": "address"
        },
        {
          "indexed": false,
          "internalType": "bool",
          "name": "approved",
          "type": "bool"
        }
      ],
      "name": "ApprovalForAll",
      "type": "event"
    },
    {
      "anonymous": false,
      "inputs": [
        {
          "indexed": true,
          "internalType": "address",
          "name": "from",
          "type": "address"
        },
        {
          "indexed": true,
          "internalType": "address",
          "name": "to",
          "type": "address"
        },
        {
          "indexed": true,
          "internalType": "uint256",
          "name": "tokenId",
          "type": "uint256"
        }
      ],
      "name": "Transfer",
      "type": "event"
    },
    {
      "inputs": [
        {
          "internalType": "address",
          "name": "to",
          "type": "address"
        },
        {
          "internalType": "uint256",
          "name": "tokenId",
          "type": "uint256"
        }
      ],
      "name": "approve",
      "outputs": [],
      "stateMutability": "nonpayable",
      "type": "function"
    },
    {
      "inputs": [
        {
          "internalType": "address",
          "name": "owner",
          "type": "address"
        }
      ],
      "name": "balanceOf",
      "outputs": [
        {
          "internalType": "uint256",
          "name": "",
          "type": "uint256"
        }
      ],
      "stateMutability": "view",
      "type": "function"
    },
    {
      "inputs": [
        {
          "internalType": "string",
          "name": "tokenURI",
          "type": "string"
        },
        {
          "internalType": "uint256",
          "name": "price",
          "type": "uint256"
        }
      ],
      "name": "createToken",
      "outputs": [
        {
          "internalType": "uint256",
          "name": "",
          "type": "uint256"
        }
      ],
      "stateMutability": "payable",
      "type": "function"
    },
    {
      "inputs": [
        {
          "internalType": "uint256",
          "name": "tokenId",
          "type": "uint256"
        }
      ],
      "name": "executeSale",
      "outputs": [],
      "stateMutability": "payable",
      "type": "function"
    },
    {
      "inputs": [],
      "name": "getAllNFTs",
      "outputs": [
        {
          "components": [
            {
              "internalType": "uint256",
              "name": "tokenId",
              "type": "uint256"
            },
            {
              "internalType": "address payable",
              "name": "owner",
              "type": "address"
            },
            {
              "internalType": "address payable",
              "name": "seller",
              "type": "address"
            },
            {
              "internalType": "uint256",
              "name": "price",
              "type": "uint256"
            },
            {
              "internalType": "bool",
              "name": "currentlyListed",
              "type": "bool"
            }
          ],
          "internalType": "struct NFTMarketplace.ListedToken[]",
          "name": "",
          "type": "tuple[]"
        }
      ],
      "stateMutability": "view",
      "type": "function"
    },
    {
      "inputs": [
        {
          "internalType": "uint256",
          "name": "tokenId",
          "type": "uint256"
        }
      ],
      "name": "getApproved",
      "outputs": [
        {
          "internalType": "address",
          "name": "",
          "type": "address"
        }
      ],
      "stateMutability": "view",
      "type": "function"
    },
    {
      "inputs": [],
      "name": "getCurrentToken",
      "outputs": [
        {
          "internalType": "uint256",
          "name": "",
          "type": "uint256"
        }
      ],
      "stateMutability": "view",
      "type": "function"
    },
    {
      "inputs": [],
      "name": "getLastestIdToListedToken",
      "outputs": [
        {
          "components": [
            {
              "internalType": "uint256",
              "name": "tokenId",
              "type": "uint256"
            },
            {
              "internalType": "address payable",
              "name": "owner",
              "type": "address"
            },
            {
              "internalType": "address payable",
              "name": "seller",
              "type": "address"
            },
            {
              "internalType": "uint256",
              "name": "price",
              "type": "uint256"
            },
            {
              "internalType": "bool",
              "name": "currentlyListed",
              "type": "bool"
            }
          ],
          "internalType": "struct NFTMarketplace.ListedToken",
          "name": "",
          "type": "tuple"
        }
      ],
      "stateMutability": "view",
      "type": "function"
    },
    {
      "inputs": [],
      "name": "getListPrice",
      "outputs": [
        {
          "internalType": "uint256",
          "name": "",
          "type": "uint256"
        }
      ],
      "stateMutability": "view",
      "type": "function"
    },
    {
      "inputs": [
        {
          "internalType": "uint256",
          "name": "tokenId",
          "type": "uint256"
        }
      ],
      "name": "getListedForTokenId",
      "outputs": [
        {
          "components": [
            {
              "internalType": "uint256",
              "name": "tokenId",
              "type": "uint256"
            },
            {
              "internalType": "address payable",
              "name": "owner",
              "type": "address"
            },
            {
              "internalType": "address payable",
              "name": "seller",
              "type": "address"
            },
            {
              "internalType": "uint256",
              "name": "price",
              "type": "uint256"
            },
            {
              "internalType": "bool",
              "name": "currentlyListed",
              "type": "bool"
            }
          ],
          "internalType": "struct NFTMarketplace.ListedToken",
          "name": "",
          "type": "tuple"
        }
      ],
      "stateMutability": "view",
      "type": "function"
    },
    {
      "inputs": [],
      "name": "getMyNFTs",
      "outputs": [
        {
          "components": [
            {
              "internalType": "uint256",
              "name": "tokenId",
              "type": "uint256"
            },
            {
              "internalType": "address payable",
              "name": "owner",
              "type": "address"
            },
            {
              "internalType": "address payable",
              "name": "seller",
              "type": "address"
            },
            {
              "internalType": "uint256",
              "name": "price",
              "type": "uint256"
            },
            {
              "internalType": "bool",
              "name": "currentlyListed",
              "type": "bool"
            }
          ],
          "internalType": "struct NFTMarketplace.ListedToken[]",
          "name": "",
          "type": "tuple[]"
        }
      ],
      "stateMutability": "view",
      "type": "function"
    },
    {
      "inputs": [
        {
          "internalType": "address",
          "name": "owner",
          "type": "address"
        },
        {
          "internalType": "address",
          "name": "operator",
          "type": "address"
        }
      ],
      "name": "isApprovedForAll",
      "outputs": [
        {
          "internalType": "bool",
          "name": "",
          "type": "bool"
        }
      ],
      "stateMutability": "view",
      "type": "function"
    },
    {
      "inputs": [],
      "name": "name",
      "outputs": [
        {
          "internalType": "string",
          "name": "",
          "type": "string"
        }
      ],
      "stateMutability": "view",
      "type": "function"
    },
    {
      "inputs": [
        {
          "internalType": "uint256",
          "name": "tokenId",
          "type": "uint256"
        }
      ],
      "name": "ownerOf",
      "outputs": [
        {
          "internalType": "address",
          "name": "",
          "type": "address"
        }
      ],
      "stateMutability": "view",
      "type": "function"
    },
    {
      "inputs": [
        {
          "internalType": "address",
          "name": "from",
          "type": "address"
        },
        {
          "internalType": "address",
          "name": "to",
          "type": "address"
        },
        {
          "internalType": "uint256",
          "name": "tokenId",
          "type": "uint256"
        }
      ],
      "name": "safeTransferFrom",
      "outputs": [],
      "stateMutability": "nonpayable",
      "type": "function"
    },
    {
      "inputs": [
        {
          "internalType": "address",
          "name": "from",
          "type": "address"
        },
        {
          "internalType": "address",
          "name": "to",
          "type": "address"
        },
        {
          "internalType": "uint256",
          "name": "tokenId",
          "type": "uint256"
        },
        {
          "internalType": "bytes",
          "name": "data",
          "type": "bytes"
        }
      ],
      "name": "safeTransferFrom",
      "outputs": [],
      "stateMutability": "nonpayable",
      "type": "function"
    },
    {
      "inputs": [
        {
          "internalType": "address",
          "name": "operator",
          "type": "address"
        },
        {
          "internalType": "bool",
          "name": "approved",
          "type": "bool"
        }
      ],
      "name": "setApprovalForAll",
      "outputs": [],
      "stateMutability": "nonpayable",
      "type": "function"
    },
    {
      "inputs": [
        {
          "internalType": "bytes4",
          "name": "interfaceId",
          "type": "bytes4"
        }
      ],
      "name": "supportsInterface",
      "outputs": [
        {
          "internalType": "bool",
          "name": "",
          "type": "bool"
        }
      ],
      "stateMutability": "view",
      "type": "function"
    },
    {
      "inputs": [],
      "name": "symbol",
      "outputs": [
        {
          "internalType": "string",
          "name": "",
          "type": "string"
        }
      ],
      "stateMutability": "view",
      "type": "function"
    },
    {
      "inputs": [
        {
          "internalType": "uint256",
          "name": "tokenId",
          "type": "uint256"
        }
      ],
      "name": "tokenURI",
      "outputs": [
        {
          "internalType": "string",
          "name": "",
          "type": "string"
        }
      ],
      "stateMutability": "view",
      "type": "function"
    },
    {
      "inputs": [
        {
          "internalType": "address",
          "name": "from",
          "type": "address"
        },
        {
          "internalType": "address",
          "name": "to",
          "type": "address"
        },
        {
          "internalType": "uint256",
          "name": "tokenId",
          "type": "uint256"
        }
      ],
      "name": "transferFrom",
      "outputs": [],
      "stateMutability": "nonpayable",
      "type": "function"
    },
    {
      "inputs": [
        {
          "internalType": "uint256",
          "name": "_listPrice",
          "type": "uint256"
        }
      ],
      "name": "updateListPrice",
      "outputs": [],
      "stateMutability": "payable",
      "type": "function"
    }
  ],
  "bytecode": "0x6080604052662386f26fc10000600a553480156200001c57600080fd5b50604080518082018252600e81526d4e46544d61726b6574706c61636560901b6020808301918252835180850190945260048452634e46544d60e01b9084015281519192916200006f91600091620000a0565b50805162000085906001906020840190620000a0565b5050600780546001600160a01b031916331790555062000183565b828054620000ae9062000146565b90600052602060002090601f016020900481019282620000d257600085556200011d565b82601f10620000ed57805160ff19168380011785556200011d565b828001600101855582156200011d579182015b828111156200011d57825182559160200191906001019062000100565b506200012b9291506200012f565b5090565b5b808211156200012b576000815560010162000130565b600181811c908216806200015b57607f821691505b602082108114156200017d57634e487b7160e01b600052602260045260246000fd5b50919050565b61206880620001936000396000f3fe6080604052600436106101355760003560e01c806395d89b41116100ab578063b88d4fde1161006f578063b88d4fde14610349578063c322579c14610369578063c87b56dd1461037c578063e0391b091461039c578063e985e9c5146103b1578063ef2d1746146103fa57600080fd5b806395d89b41146102bf57806398c3df16146102d45780639b1225c4146103015780639b24684814610314578063a22cb4651461032957600080fd5b806342842e0e116100fd57806342842e0e1461020b578063629cb2e41461022b5780636352211e1461024d57806368f1945f1461026d57806370a082311461028c57806372b3b620146102ac57600080fd5b806301ffc9a71461013a57806306fdde031461016f578063081812fc14610191578063095ea7b3146101c957806323b872dd146101eb575b600080fd5b34801561014657600080fd5b5061015a610155366004611c85565b61040f565b60405190151581526020015b60405180910390f35b34801561017b57600080fd5b50610184610461565b6040516101669190611e51565b34801561019d57600080fd5b506101b16101ac366004611d13565b6104f3565b6040516001600160a01b039091168152602001610166565b3480156101d557600080fd5b506101e96101e4366004611c5c565b61051a565b005b3480156101f757600080fd5b506101e9610206366004611b6e565b610635565b34801561021757600080fd5b506101e9610226366004611b6e565b610666565b34801561023757600080fd5b50610240610681565b6040516101669190611e03565b34801561025957600080fd5b506101b1610268366004611d13565b6108c6565b34801561027957600080fd5b50600a545b604051908152602001610166565b34801561029857600080fd5b5061027e6102a7366004611b22565b610926565b61027e6102ba366004611cbd565b6109ac565b3480156102cb57600080fd5b50610184610a9b565b3480156102e057600080fd5b506102f46102ef366004611d13565b610aaa565b6040516101669190611f48565b6101e961030f366004611d13565b610b14565b34801561032057600080fd5b506102f4610c74565b34801561033557600080fd5b506101e9610344366004611c22565b610ceb565b34801561035557600080fd5b506101e9610364366004611ba9565b610cfa565b6101e9610377366004611d13565b610d2c565b34801561038857600080fd5b50610184610397366004611d13565b610d9b565b3480156103a857600080fd5b50610240610eac565b3480156103bd57600080fd5b5061015a6103cc366004611b3c565b6001600160a01b03918216600090815260056020908152604080832093909416825291909152205460ff1690565b34801561040657600080fd5b5061027e610ff3565b60006001600160e01b031982166380ac58cd60e01b148061044057506001600160e01b03198216635b5e139f60e01b145b8061045b57506301ffc9a760e01b6001600160e01b03198316145b92915050565b60606000805461047090611f9a565b80601f016020809104026020016040519081016040528092919081815260200182805461049c90611f9a565b80156104e95780601f106104be576101008083540402835291602001916104e9565b820191906000526020600020905b8154815290600101906020018083116104cc57829003601f168201915b5050505050905090565b60006104fe82611003565b506000908152600460205260409020546001600160a01b031690565b6000610525826108c6565b9050806001600160a01b0316836001600160a01b031614156105985760405162461bcd60e51b815260206004820152602160248201527f4552433732313a20617070726f76616c20746f2063757272656e74206f776e656044820152603960f91b60648201526084015b60405180910390fd5b336001600160a01b03821614806105b457506105b481336103cc565b6106265760405162461bcd60e51b815260206004820152603d60248201527f4552433732313a20617070726f76652063616c6c6572206973206e6f7420746f60448201527f6b656e206f776e6572206f7220617070726f76656420666f7220616c6c000000606482015260840161058f565b6106308383611065565b505050565b61063f33826110d3565b61065b5760405162461bcd60e51b815260040161058f90611e64565b610630838383611151565b61063083838360405180602001604052806000815250610cfa565b6060600061068e60085490565b905060008060005b838110156107265733600b60006106ae846001611f56565b81526020810191909152604001600020600101546001600160a01b03161480610701575033600b60006106e2846001611f56565b81526020810191909152604001600020600201546001600160a01b0316145b1561071457610711600184611f56565b92505b8061071e81611fd5565b915050610696565b5060008267ffffffffffffffff81111561075057634e487b7160e01b600052604160045260246000fd5b60405190808252806020026020018201604052801561078957816020015b6107766119c9565b81526020019060019003908161076e5790505b50905060005b848110156108bd5733600b60006107a7846001611f56565b81526020810191909152604001600020600101546001600160a01b031614806107fa575033600b60006107db846001611f56565b81526020810191909152604001600020600201546001600160a01b0316145b156108ab57600061080c826001611f56565b6000818152600b6020908152604091829020825160a0810184528154815260018201546001600160a01b039081169382019390935260028201549092169282019290925260038201546060820152600482015460ff16151560808201528551929350909185908790811061089057634e487b7160e01b600052603260045260246000fd5b60209081029190910101526108a6600186611f56565b945050505b806108b581611fd5565b91505061078f565b50949350505050565b6000818152600260205260408120546001600160a01b03168061045b5760405162461bcd60e51b8152602060048201526018602482015277115490cdcc8c4e881a5b9d985b1a59081d1bdad95b88125160421b604482015260640161058f565b60006001600160a01b0382166109905760405162461bcd60e51b815260206004820152602960248201527f4552433732313a2061646472657373207a65726f206973206e6f7420612076616044820152683634b21037bbb732b960b91b606482015260840161058f565b506001600160a01b031660009081526003602052604090205490565b6000600a5434146109ff5760405162461bcd60e51b815260206004820152601960248201527f53656e6420656e6f75676820657468657220746f206c69737400000000000000604482015260640161058f565b60008211610a5b5760405162461bcd60e51b815260206004820152602360248201527f4d616b652073757265207468652070726963652069736e2774206e656761746560448201526269766560e81b606482015260840161058f565b610a69600880546001019055565b6000610a7460085490565b9050610a8033826112b5565b610a8a81856112cf565b610a948184611369565b9392505050565b60606001805461047090611f9a565b610ab26119c9565b506000908152600b6020908152604091829020825160a0810184528154815260018201546001600160a01b03908116938201939093526002820154909216928201929092526003820154606082015260049091015460ff161515608082015290565b6000818152600b6020526040902060030154348114610b9d576040805162461bcd60e51b81526020600482015260248101919091527f506c65617365207375626d6974207468652061736b696e67207072696365206960448201527f6e206f7264657220746f20636f6d706c65746520746865207075726368617365606482015260840161058f565b6000828152600b602052604090206002810180546004909201805460ff191660011790556001600160a01b03198216331790556001600160a01b0316610be7600980546001019055565b610bf2303385611151565b610bfc308461051a565b600754600a546040516001600160a01b039092169181156108fc0291906000818181858888f19350505050158015610c38573d6000803e3d6000fd5b506040516001600160a01b038216903480156108fc02916000818181858888f19350505050158015610c6e573d6000803e3d6000fd5b50505050565b610c7c6119c9565b6000610c8760085490565b6000908152600b6020908152604091829020825160a0810184528154815260018201546001600160a01b03908116938201939093526002820154909216928201929092526003820154606082015260049091015460ff161515608082015292915050565b610cf6338383611406565b5050565b610d0433836110d3565b610d205760405162461bcd60e51b815260040161058f90611e64565b610c6e848484846114d5565b6007546001600160a01b03163314610d965760405162461bcd60e51b815260206004820152602760248201527f4f6e6c79206f776e65722063616e2075706461746520746865206c697374696e6044820152666720707269636560c81b606482015260840161058f565b600a55565b6060610da682611003565b60008281526006602052604081208054610dbf90611f9a565b80601f0160208091040260200160405190810160405280929190818152602001828054610deb90611f9a565b8015610e385780601f10610e0d57610100808354040283529160200191610e38565b820191906000526020600020905b815481529060010190602001808311610e1b57829003601f168201915b505050505090506000610e5660408051602081019091526000815290565b9050805160001415610e69575092915050565b815115610e9b578082604051602001610e83929190611d97565b60405160208183030381529060405292505050919050565b610ea484611508565b949350505050565b60606000610eb960085490565b905060008167ffffffffffffffff811115610ee457634e487b7160e01b600052604160045260246000fd5b604051908082528060200260200182016040528015610f1d57816020015b610f0a6119c9565b815260200190600190039081610f025790505b5090506000805b83811015610fea576000610f39826001611f56565b6000818152600b6020908152604091829020825160a0810184528154815260018201546001600160a01b039081169382019390935260028201549092169282019290925260038201546060820152600482015460ff161515608082015286519293509091869086908110610fbd57634e487b7160e01b600052603260045260246000fd5b6020908102919091010152610fd3600185611f56565b935050508080610fe290611fd5565b915050610f24565b50909392505050565b6000610ffe60085490565b905090565b6000818152600260205260409020546001600160a01b03166110625760405162461bcd60e51b8152602060048201526018602482015277115490cdcc8c4e881a5b9d985b1a59081d1bdad95b88125160421b604482015260640161058f565b50565b600081815260046020526040902080546001600160a01b0319166001600160a01b038416908117909155819061109a826108c6565b6001600160a01b03167f8c5be1e5ebec7d5bd14f71427d1e84f3dd0314c0f7b2291e5b200ac8c7c3b92560405160405180910390a45050565b6000806110df836108c6565b9050806001600160a01b0316846001600160a01b0316148061112657506001600160a01b0380821660009081526005602090815260408083209388168352929052205460ff165b80610ea45750836001600160a01b031661113f846104f3565b6001600160a01b031614949350505050565b826001600160a01b0316611164826108c6565b6001600160a01b03161461118a5760405162461bcd60e51b815260040161058f90611f03565b6001600160a01b0382166111ec5760405162461bcd60e51b8152602060048201526024808201527f4552433732313a207472616e7366657220746f20746865207a65726f206164646044820152637265737360e01b606482015260840161058f565b826001600160a01b03166111ff826108c6565b6001600160a01b0316146112255760405162461bcd60e51b815260040161058f90611f03565b600081815260046020908152604080832080546001600160a01b03199081169091556001600160a01b0387811680865260038552838620805460001901905590871680865283862080546001019055868652600290945282852080549092168417909155905184937fddf252ad1be2c89b69c2b068fc378daa952ba7f163c4a11628f55a4df523b3ef91a4505050565b610cf682826040518060200160405280600081525061157b565b6000828152600260205260409020546001600160a01b031661134a5760405162461bcd60e51b815260206004820152602e60248201527f45524337323155524953746f726167653a2055524920736574206f66206e6f6e60448201526d32bc34b9ba32b73a103a37b5b2b760911b606482015260840161058f565b60008281526006602090815260409091208251610630928401906119f7565b6040805160a081018252838152306020808301828152338486018181526060860188815260016080880181815260008c8152600b9097529890952096518755925193860180546001600160a01b039586166001600160a01b03199182161790915590516002870180549190951691161790925551600384015592516004909201805492151560ff1990931692909217909155610cf6919084611151565b816001600160a01b0316836001600160a01b031614156114685760405162461bcd60e51b815260206004820152601960248201527f4552433732313a20617070726f766520746f2063616c6c657200000000000000604482015260640161058f565b6001600160a01b03838116600081815260056020908152604080832094871680845294825291829020805460ff191686151590811790915591519182527f17307eab39ab6107e8899845ad3d59bd9653f200f220920489ca2b5937696c31910160405180910390a3505050565b6114e0848484611151565b6114ec848484846115ae565b610c6e5760405162461bcd60e51b815260040161058f90611eb1565b606061151382611003565b600061152a60408051602081019091526000815290565b9050600081511161154a5760405180602001604052806000815250610a94565b80611554846116bb565b604051602001611565929190611d97565b6040516020818303038152906040529392505050565b6115858383611766565b61159260008484846115ae565b6106305760405162461bcd60e51b815260040161058f90611eb1565b60006001600160a01b0384163b156116b057604051630a85bd0160e11b81526001600160a01b0385169063150b7a02906115f2903390899088908890600401611dc6565b602060405180830381600087803b15801561160c57600080fd5b505af192505050801561163c575060408051601f3d908101601f1916820190925261163991810190611ca1565b60015b611696573d80801561166a576040519150601f19603f3d011682016040523d82523d6000602084013e61166f565b606091505b50805161168e5760405162461bcd60e51b815260040161058f90611eb1565b805181602001fd5b6001600160e01b031916630a85bd0160e11b149050610ea4565b506001949350505050565b606060006116c8836118f1565b600101905060008167ffffffffffffffff8111156116f657634e487b7160e01b600052604160045260246000fd5b6040519080825280601f01601f191660200182016040528015611720576020820181803683370190505b5090508181016020015b600019016f181899199a1a9b1b9c1cb0b131b232b360811b600a86061a8153600a85049450846117595761175e565b61172a565b509392505050565b6001600160a01b0382166117bc5760405162461bcd60e51b815260206004820181905260248201527f4552433732313a206d696e7420746f20746865207a65726f2061646472657373604482015260640161058f565b6000818152600260205260409020546001600160a01b0316156118215760405162461bcd60e51b815260206004820152601c60248201527f4552433732313a20746f6b656e20616c7265616479206d696e74656400000000604482015260640161058f565b6000818152600260205260409020546001600160a01b0316156118865760405162461bcd60e51b815260206004820152601c60248201527f4552433732313a20746f6b656e20616c7265616479206d696e74656400000000604482015260640161058f565b6001600160a01b038216600081815260036020908152604080832080546001019055848352600290915280822080546001600160a01b0319168417905551839291907fddf252ad1be2c89b69c2b068fc378daa952ba7f163c4a11628f55a4df523b3ef908290a45050565b60008072184f03e93ff9f4daa797ed6e38ed64bf6a1f0160401b83106119305772184f03e93ff9f4daa797ed6e38ed64bf6a1f0160401b830492506040015b6d04ee2d6d415b85acef8100000000831061195c576d04ee2d6d415b85acef8100000000830492506020015b662386f26fc10000831061197a57662386f26fc10000830492506010015b6305f5e1008310611992576305f5e100830492506008015b61271083106119a657612710830492506004015b606483106119b8576064830492506002015b600a831061045b5760010192915050565b6040805160a08101825260008082526020820181905291810182905260608101829052608081019190915290565b828054611a0390611f9a565b90600052602060002090601f016020900481019282611a255760008555611a6b565b82601f10611a3e57805160ff1916838001178555611a6b565b82800160010185558215611a6b579182015b82811115611a6b578251825591602001919060010190611a50565b50611a77929150611a7b565b5090565b5b80821115611a775760008155600101611a7c565b600067ffffffffffffffff80841115611aab57611aab612006565b604051601f8501601f19908116603f01168101908282118183101715611ad357611ad3612006565b81604052809350858152868686011115611aec57600080fd5b858560208301376000602087830101525050509392505050565b80356001600160a01b0381168114611b1d57600080fd5b919050565b600060208284031215611b33578081fd5b610a9482611b06565b60008060408385031215611b4e578081fd5b611b5783611b06565b9150611b6560208401611b06565b90509250929050565b600080600060608486031215611b82578081fd5b611b8b84611b06565b9250611b9960208501611b06565b9150604084013590509250925092565b60008060008060808587031215611bbe578081fd5b611bc785611b06565b9350611bd560208601611b06565b925060408501359150606085013567ffffffffffffffff811115611bf7578182fd5b8501601f81018713611c07578182fd5b611c1687823560208401611a90565b91505092959194509250565b60008060408385031215611c34578182fd5b611c3d83611b06565b915060208301358015158114611c51578182fd5b809150509250929050565b60008060408385031215611c6e578182fd5b611c7783611b06565b946020939093013593505050565b600060208284031215611c96578081fd5b8135610a948161201c565b600060208284031215611cb2578081fd5b8151610a948161201c565b60008060408385031215611ccf578182fd5b823567ffffffffffffffff811115611ce5578283fd5b8301601f81018513611cf5578283fd5b611d0485823560208401611a90565b95602094909401359450505050565b600060208284031215611d24578081fd5b5035919050565b60008151808452611d43816020860160208601611f6e565b601f01601f19169290920160200192915050565b805182526020808201516001600160a01b039081169184019190915260408083015190911690830152606080820151908301526080908101511515910152565b60008351611da9818460208801611f6e565b835190830190611dbd818360208801611f6e565b01949350505050565b6001600160a01b0385811682528416602082015260408101839052608060608201819052600090611df990830184611d2b565b9695505050505050565b6020808252825182820181905260009190848201906040850190845b81811015611e4557611e32838551611d57565b9284019260a09290920191600101611e1f565b50909695505050505050565b602081526000610a946020830184611d2b565b6020808252602d908201527f4552433732313a2063616c6c6572206973206e6f7420746f6b656e206f776e6560408201526c1c881bdc88185c1c1c9bdd9959609a1b606082015260800190565b60208082526032908201527f4552433732313a207472616e7366657220746f206e6f6e20455243373231526560408201527131b2b4bb32b91034b6b83632b6b2b73a32b960711b606082015260800190565b60208082526025908201527f4552433732313a207472616e736665722066726f6d20696e636f72726563742060408201526437bbb732b960d91b606082015260800190565b60a0810161045b8284611d57565b60008219821115611f6957611f69611ff0565b500190565b60005b83811015611f89578181015183820152602001611f71565b83811115610c6e5750506000910152565b600181811c90821680611fae57607f821691505b60208210811415611fcf57634e487b7160e01b600052602260045260246000fd5b50919050565b6000600019821415611fe957611fe9611ff0565b5060010190565b634e487b7160e01b600052601160045260246000fd5b634e487b7160e01b600052604160045260246000fd5b6001600160e01b03198116811461106257600080fdfea2646970667358221220285614c58838d0da1dea3b2927e1ec3f1c932605e79ea208b9272a5b272fd0f264736f6c63430008040033",
  "linkReferences": {},
  "deployedLinkReferences": {}
}